:020000040800F2
:10000000000001205903000861030008690300088B
:10001000F1030008F90300084D0400080000000087
:10002000000000000000000000000000A104000823
:10003000A904000800000000B1040008B904000889
:10004000D1040008D1040008D1040008D10400083C
:10005000D1040008D1040008D1040008D10400082C
:10006000D1040008D1040008D1040008D10400081C
:10007000D1040008D1040008D1040008D10400080C
:10008000D1040008D1040008D104000800000000D9
:10009000000000000000000000000000D104000883
:1000A000D1040008D1040008D1040008D1040008DC
:1000B000D1040008D1040008D1040008D1040008CC
:1000C000D1040008D1040008D1040008D1040008BC
:1000D000D1040008C51A0008E91A00080000000051
:1000E000D1040008D1040008D10400080000000079
:1000F000000000000000000000000000D104000823
:1001000000000000D1040008D1040008D104000858
:1001100000000000000000000000000000000000DF
:10012000D1040008D1040008D1040008D10400085B
:10013000D1040008000000000000000000000000E2
:10014000000000000000000000000000D1040008D2
:10015000D1040008D1040008D10400080D1B0008D8
:10016000D1040008D10400080000000000000000D5
:10017000000000000000000000000000000000007F
:1001800000000000D1040008000000000000000092
:10019000D104000880B596B000AF01F02DF95D4B99
:1001A0005D4A1A605D4B5C4A1A605D4B7B6523E0DB
:1001B0007B6D1A1D7A651B683B647B6D1A1D7A6521
:1001C0001B68FB637B6D1A1D7A651B68BB633B6C08
:1001D0007B63FB6B3B63BB6BFB623B6BBB6207E010
:1001E0007A6B131D7B63BB6A191DB96212681A60B2
:1001F000FA6ABB6A9A42F3D87B6D4A4A9342D7D3D4
:10020000444B1B68484A934204D1444B1B68474AFD
:10021000934200D0FEE7464B3F4A1A60454B3E4AA8
:100220001A60454B3B6519E03B6D1A1D3A651B682A
:10023000BB643B6D1A1D3A651B687B64BB6C7B62BB
:100240007B6C3B627B6AFB6104E0FB691A1DFA610F
:1002500000221A603A6AFB699A42F6D83B6D374A27
:100260009342E1D3324B1B68002B03D1314B1B6807
:10027000002B00D0FEE702F0A9FE3A1D07F10803AB
:100280001146184600F0FCFF2D4A2E4BD31A9B1046
:100290003B610023FB6007E02A4AFB6852F82330E9
:1002A0009847FB680133FB603A69FB689A42F3DCCC
:1002B000254A264BD31A9B103B610023FB6007E0C5
:1002C000224AFB6852F823309847FB680133FB60F1
:1002D0003A69FB689A42F3DCBB687A6811461846B3
:1002E00002F038FFF8641A4A1A4BD31A9B10BB610C
:1002F000BB697B6108E07B69013B164A52F82330F9
:1003000098477B69013B7B617B69002BF3DCF86CD0
:1003100000F072FF00000020BABADECAD428002024
:10032000D8040008F0040008785634123254769845
:10033000D8280020E0330020F00400080005000861
:100340000005000800050008000500080005000879
:10035000000500080005000880B500AFFFF71AFF90
:1003600080B400AF00BEFEE71EF0040F0CBFEFF339
:100370000880EFF309807146524A104700BF80B5EC
:1003800088B002AF78603960174B5B6B7B61164BAE
:100390009B6B3B61144B9B6AFB60134B1B6B03F025
:1003A0000203002B10D0104BDB6A002B0CDA4BF64B
:1003B000AB61786801F0C4F80346002B04D00A4B07
:1003C0004FF00042DA620CE0084800F079FF3B6829
:1003D00000933B697A69F968786801F01BF800BE00
:1003E000FEE71837BD4680BD00ED00E0BC400008C8
:1003F00080B400AF00BEFEE71EF0040F0CBFEFF3A9
:100400000880EFF3098071462F4A104700BF80B57E
:1004100088B002AF786039600A4B5B6B7B61094B37
:100420009B6B3B61074B9B6AFB60074800F048FFF2
:100430003B6800933B697A69F968786800F0EAFFE5
:1004400000BEFEE700ED00E0CC4000081EF0040F07
:100450000CBFEFF30880EFF3098071461B4A104789
:1004600000BF80B588B002AF786039600A4B5B6B23
:100470007B61094B9B6B3B61074B9B6AFB600748A9
:1004800000F01EFF3B6800933B697A69F968786861
:1004900000F0C0FF00BEFEE700ED00E0D84000081D
:1004A00080B400AF00BEFEE780B400AF00BEFEE740
:1004B00080B400AF00BEFEE780B400AF00BFBD4611
:1004C00080BC70477F0300080F0400086304000825
:0804D00080B400AF00BEFEE79E
:1004D8003441000800000020D828002034410008DA
:1004E8000000001000000010D8280020E43300208D
:0804F8000000001000000010DC
:1005000080B500AF0E4B1B680D4A43F400731360B7
:100510000B4B1B680A4A43F480631360084B1B684B
:10052000074A43F480731360032000F0E1F80F20C2
:1005300000F008F802F09EFE0023184680BD00BFC0
:10054000003C024080B582B000AF7860094B1B6868
:10055000094AA2FB03239B09184600F015F9002263
:1005600079684FF0FF3000F0E3F8002318460837B1
:10057000BD4680BD0C000020D34D621080B400AF9A
:10058000024B1B681846BD4680BC7047742900208A
:1005900080B485B000AF78607B6803F00703FB6030
:1005A0000C4BDB68BB60BA684FF6FF031340BB60BF
:1005B000FB681A02BB68134343F0BF6343F4003384
:1005C000BB60044ABB68D36000BF1437BD4680BC23
:1005D000704700BF00ED00E080B400AF044BDB6863
:1005E0001B0A03F007031846BD4680BC704700BFD6
:1005F00000ED00E080B483B000AF03463960FB71CA
:1006000097F90730002B0BDA3B68DAB20C49FB791B
:1006100003F00F03043B1201D2B20B441A7609E037
:100620003B68DAB2074997F907301201D2B20B449E
:1006300083F8002300BF0C37BD4680BC704700BF65
:1006400000ED00E000E100E080B489B000AFF860A8
:10065000B9607A60FB6803F00703FB61FB69C3F1D3
:100660000703042B28BF0423BB61FB690433062B5B
:1006700002D9FB69033B00E000237B614FF0FF32AE
:10068000BB6902FA03F3DA43BB681A407B699A40FC
:100690004FF0FF317B6901FA03F3D9437B680B40CC
:1006A000134318462437BD4680BC704780B582B0DE
:1006B00000AF78607B68013BB3F1807F01D30123F9
:1006C0000FE00A4A7B68013B53600F214FF0FF3077
:1006D000FFF790FF054B00229A60044B07221A6037
:1006E000002318460837BD4680BD00BF10E000E07B
:1006F00080B582B000AF78607B68072B0FD07B6835
:10070000062B0CD07B68052B09D07B68042B06D008
:100710007B68032B03D0A421044800F0C3FD786854
:10072000FFF736FF00BF0837BD4680BD783E0008A2
:1007300080B586B000AF0346B9607A60FB730023D2
:100740007B617B680F2B03D9BC210E4800F0AAFD0A
:10075000BB680F2B03D9BD210A4800F0A3FDFFF7AA
:100760003BFF78617A68B9687869FFF76DFF0246E8
:1007700097F90F3011461846FFF73CFF00BF1837B6
:10078000BD4680BD783E000880B582B000AF78607D
:100790007868FFF78BFF034618460837BD4680BDD3
:1007A00080B582B000AF78607B68042B07D07B688F
:1007B000002B04D040F2B3110B4800F073FD7B68AE
:1007C000042B06D1094B1B68084A43F0040313604D
:1007D00005E0064B1B68054A23F00403136000BFC5
:1007E0000837BD4680BD00BF783E000810E000E03D
:1007F00080B58EB000AF786000237B637B681B6898
:100800000F2B03D9F5219E4800F04CFD7B681B6837
:1008100003F00103002B60D07B685B68002B0BD0DA
:100820007B685B68012B07D07B685B68052B03D076
:10083000FA21934800F036FD924B9B6803F00C03BD
:10084000042B0CD08F4B9B6803F00C03082B12D1A8
:100850008C4B5B6803F48003B3F5800F0BD1894B9D
:100860001B6803F40033002B36D07B685B68002BD9
:1008700032D1012376E27B685A68834BD2B21A7078
:100880007B685B68002B13D0FFF778FE786308E085
:10089000FFF774FE02467B6BD31A642B01D9032346
:1008A00060E2784B1B6803F40033002BF0D014E0B7
:1008B000FFF764FE786308E0FFF760FE02467B6B9B
:1008C000D31A642B01D903234CE26E4B1B6803F44B
:1008D0000033002BF0D100E000BF7B681B6803F001
:1008E0000203002B00F08E807B68DB68002B08D0B1
:1008F0007B68DB68012B04D04FF49671604800F0F0
:10090000D1FC7B681B691F2B04D940F22D115C4878
:1009100000F0C8FC5B4B9B6803F00C03002B0BD072
:10092000584B9B6803F00C03082B26D1554B5B6892
:1009300003F48003002B20D1524B1B6803F0020309
:10094000002B05D07B68DB68012B01D0012309E275
:100950004C4B1B6823F0F8027B681969F8233B6352
:100960003B6B93FAA3F3FB62FB6AB3FA83F301FADE
:1009700003F3444913430B6044E07B68DB68002BBE
:100980002AD0424B01221A60FFF7F8FD786308E095
:10099000FFF7F4FD02467B6BD31A022B01D9032328
:1009A000E0E1384B1B6803F00203002BF0D0354B1D
:1009B0001B6823F0F8027B681969F823BB62BB6AE5
:1009C00093FAA3F37B627B6AB3FA83F301FA03F32E
:1009D0002C4913430B6015E02C4B00221A60FFF7E3
:1009E000CDFD786308E0FFF7C9FD02467B6BD31AA3
:1009F000022B01D90323B5E1224B1B6803F002034C
:100A0000002BF0D17B681B6803F00803002B47D054
:100A10007B685B69002B08D07B685B69012B04D085
:100A200040F26D11164800F03DFC7B685B69002BBD
:100A300016D0174B01221A60FFF7A0FD786308E07B
:100A4000FFF79CFD02467B6BD31A022B01D90323CF
:100A500088E10C4B5B6F03F00203002BF0D01FE02A
:100A60000B4B00221A60FFF789FD786312E0FFF755
:100A700085FD02467B6BD31A022B0BD9032371E150
:100A8000BC3E0008003802400238024000004742E5
:100A9000800E4742A94B5B6F03F00203002BE6D1A7
:100AA0007B681B6803F00403002B6BD07B689B689A
:100AB000002B0CD07B689B68012B08D07B689B685F
:100AC000052B04D040F297119D4800F0EBFB00236A
:100AD000BB609A4B1B6C994A43F080531364974B4D
:100AE0001B6C03F08053BB60BB68964B1B68954A38
:100AF00043F480731360FFF741FD786308E0FFF76C
:100B00003DFD02467B6BD31A022B01D9032329E159
:100B10008C4B1B6803F48073002BF0D07B689A68C1
:100B2000894BD2B21A707B689B68002B15D0FFF7F7
:100B300025FD78630AE0FFF721FD02467B6BD31A9F
:100B400041F28832934201D903230BE17B4B1B6FA7
:100B500003F00203002BEED014E0FFF70FFD7863E3
:100B60000AE0FFF70BFD02467B6BD31A41F2883295
:100B7000934201D90323F5E0704B1B6F03F002038E
:100B8000002BEED17B689B69002B0CD07B689B69A6
:100B9000012B08D07B689B69022B04D04FF4E671CF
:100BA000674800F07FFB7B689B69002B00F0D980D1
:100BB000624B9B6803F00C03082B00F0D0807B682D
:100BC0009B69022B40F0AA807B68DB69002B09D06F
:100BD0007B68DB69B3F5800F04D040F2D51158482B
:100BE00000F060FB7B681B6A3F2B04D94FF4EB716C
:100BF000534800F057FB7B685B6A312B04D97B6854
:100C00005B6AB3F5D87F04D940F2D7114C4800F0A5
:100C100049FB7B689B6A022B10D07B689B6A042B84
:100C20000CD07B689B6A062B08D07B689B6A082BDC
:100C300004D04FF4EC71424800F034FB7B68DB6A6F
:100C4000032B03D97B68DB6A0F2B04D940F2D9113F
:100C50003B4800F027FB3D4B00221A60FFF78EFC5B
:100C6000786308E0FFF78AFC02467B6BD31A022BFD
:100C700001D9032376E0314B1B6803F00073002B8E
:100C8000F0D17B68DA697B681B6A1A437B68596A12
:100C900047F6C0733B613B6993FAA3F3FB60FB68C3
:100CA000B3FA83F301FA03F31A437B689B6A5B0888
:100CB000591E4FF44033BB61BB6993FAA3F37B61C8
:100CC0007B69B3FA83F301FA03F31A437B68D96AA9
:100CD0004FF070633B623B6A93FAA3F3FB61FB69DD
:100CE000B3FA83F301FA03F3144913434B60174B30
:100CF00001221A60FFF742FC786308E0FFF73EFC30
:100D000002467B6BD31A022B01D903232AE00B4B3B
:100D10001B6803F00073002BF0D022E00B4B002285
:100D20001A60FFF72BFC786312E0FFF727FC0246FE
:100D30007B6BD31A022B0BD9032313E0003802403C
:100D4000BC3E00080070004070380240600047421E
:100D5000064B1B6803F00073002BE6D101E0012372
:100D600000E0002318463837BD4680BD00380240F9
:100D700080B586B000AF7860396000237B617B6806
:100D80001B68002B03D07B681B680F2B04D940F233
:100D90003721914800F086FA3B68002B19D03B6858
:100DA000012B16D03B68022B13D03B68032B10D0CD
:100DB0003B68042B0DD03B68052B0AD03B68062B03
:100DC00007D03B68072B04D04FF40E71824800F027
:100DD00069FA824B1B6803F00F033A689A420CD9F8
:100DE0007E4B3A68D2B21A707C4B1B6803F00F033B
:100DF0003A689A4201D0012369E17B681B6803F0DD
:100E00000203002B31D07B689B68002B24D07B68C9
:100E10009B68802B20D07B689B68902B1CD07B68C4
:100E20009B68A02B18D07B689B68B02B14D07B6884
:100E30009B68C02B10D07B689B68D02B0CD07B6844
:100E40009B68E02B08D07B689B68F02B04D040F2B5
:100E50004F21614800F026FA614B9B6823F0F002B5
:100E60007B689B685E4913438B607B681B6803F05B
:100E70000103002B00F09B807B685B68002B10D087
:100E80007B685B68012B0CD07B685B68022B08D009
:100E90007B685B68032B04D040F256214E4800F07B
:100EA00001FA7B685B68012B07D14D4B1B6803F48B
:100EB0000033002B19D1012309E17B685B68022B09
:100EC00003D07B685B68032B07D1454B1B6803F09D
:100ED0000073002B09D10123F9E0414B1B6803F09B
:100EE0000203002B01D10123F1E03D4B9B6823F06D
:100EF00003027B685B683A4913438B60FFF73EFB54
:100F000078617B685B68012B12D10AE0FFF736FB42
:100F100002467B69D31A41F28832934201D90323F6
:100F2000D5E02F4B9B6803F00C03042BEED13EE081
:100F30007B685B68022B12D10AE0FFF71FFB0246B9
:100F40007B69D31A41F28832934201D90323BEE070
:100F5000234B9B6803F00C03082BEED127E07B6842
:100F60005B68032B1DD10AE0FFF708FB02467B6993
:100F7000D31A41F28832934201D90323A7E0184BD8
:100F80009B6803F00C030C2BEED110E0FFF7F6FA90
:100F900002467B69D31A41F28832934201D9032376
:100FA00095E00F4B9B6803F00C03002BEED10B4B2D
:100FB0001B6803F00F033A689A4213D2074B3A6852
:100FC000D2B21A70054B1B6803F00F033A689A42BD
:100FD00008D001237BE000BFBC3E0008003C02407B
:100FE000003802407B681B6803F00403002B25D007
:100FF0007B68DB68002B18D07B68DB68B3F5805F0B
:1010000013D07B68DB68B3F5A05F0ED07B68DB682C
:10101000B3F5C05F09D07B68DB68B3F5E05F04D04F
:101020004FF42D712C4800F03DF92C4B9B6823F4B4
:10103000E0527B68DB68294913438B607B681B683F
:1010400003F00803002B26D07B681B69002B18D007
:101050007B681B69B3F5805F13D07B681B69B3F5B0
:10106000A05F0ED07B681B69B3F5C05F09D07B68B9
:101070001B69B3F5E05F04D040F2BB21164800F0D5
:1010800011F9164B9B6823F460427B681B69DB00F7
:10109000124913438B6000F027F801460F4B9B6801
:1010A00003F0F002F0233B613B6993FAA3F3FB608A
:1010B000FB68B3FA83F322FA03F3094AD35C21FAFB
:1010C00003F3084A13600F20FFF73CFA0023184689
:1010D0001837BD4680BD00BFBC3E00080038024046
:1010E000AC3E00080C00002080B48BB000AF0023A1
:1010F000FB6100237B620023BB6100233B62364B14
:101100009B6803F00C03042B06D0082B07D0002BA0
:1011100058D1324B3B6258E0314B3B6255E02E4B8D
:101120005B6803F03F03FB612B4B5B6803F48003B8
:10113000002B17D02A4AFB69B2FBF3F2264B596801
:1011400047F6C0730B4047F6C0717961796991FA2F
:10115000A1F139613969B1FA81F1CB4003FB02F3A6
:101160007B6216E01D4AFB69B2FBF3F21A4B596829
:1011700047F6C0730B4047F6C071F960F96891FA01
:10118000A1F1B960B968B1FA81F1CB4003FB02F378
:101190007B62114B5B6803F440324FF440337B6059
:1011A0007B6893FAA3F33B603B68B3FA83F322FABC
:1011B00003F301335B00BB617A6ABB69B2FBF3F3F3
:1011C0003B6202E0054B3B6200BF3B6A18462C378E
:1011D000BD4680BC704700BF003802400024F400C8
:1011E00040787D0180B400AF024B1B681846BD46B5
:1011F00080BC70470C00002080B483B000AF7860E2
:10120000FEE7000080B500AF024800F07BF8012047
:10121000FFF7F2FFEC3E000880B584B000AF7860C5
:10122000144B1B68002B02D1124B134A1A60114B4E
:101230001B68FB607B68033323F003037B600D4B6B
:101240001A687B6813440D4A934207D902F098F953
:1012500002460C2313604FF0FF3306E0054B1A687B
:101260007B681344034A1360FB6818461037BD4679
:1012700080BD00BFDC280020E433002000FC0020FB
:1012800080B483B000AF786039607B6801221A6057
:101290003B68034A1A6000BF0C37BD4680BC7047EC
:1012A0000400002080B582B000AF786039603A68F1
:1012B0007968024800F004F8FFF7A4FF443F0008F3
:1012C0000FB480B582B000AF07F114033B603B68F8
:1012D0003A6980210A4802F08DF978607B68002B1A
:1012E00005DD7B681946064800F024F878607B68C5
:1012F00018460837BD46BDE8804004B0704700BFBF
:10130000E428002080B582B000AF7860786802F0F1
:101310003DF903461946786800F00CF801210448AD
:1013200000F008F8034618460837BD4680BD00BFE8
:10133000703F000880B582B000AF786039603968CE
:10134000786800F005F8034618460837BD4680BDAA
:10135000B0B590B000AF786039607A683B681344EC
:1013600093F90030002B0BD104233B637B68FB62B5
:101370003C6BFD6A20462946ABBE0446BC6236E0A3
:101380003B68FB6330E0FB6B102B28BF10237B63B3
:101390000023BB630EE07B6893F9001007F10C0299
:1013A000BB6B13440A461A70BB6B0133BB637B688B
:1013B00001337B60BA6B7B6B9A42ECD307F10C0272
:1013C000BB6B134400221A7004237B6207F10C03E9
:1013D0003B627C6A3D6A20462946ABBE0446FC61FE
:1013E000FA6B7B6BD31AFB63FB6B002BCBD13B6897
:1013F00018464037BD46B0BD80B500AF00F0C8F814
:10140000024B034A9A6000BF80BD00BF00ED00E0C0
:101410000000000880B584B000AFF860B9607A6061
:101420003B603448FFF74CFFFB681B6819463248A5
:10143000FFF746FFFB685B6819463048FFF740FF3F
:10144000FB689B6819462E48FFF73AFFFB68DB688C
:1014500019462C48FFF734FFFB681B6919462A48D8
:10146000FFF72EFFFB685B6919462848FFF728FF46
:10147000FB689B6919462648FFF722FFFB68DB697A
:1014800019462448FFF71CFF2348FFF719FFB968E6
:101490002248FFF715FF224BDB6A19462148FFF768
:1014A0000FFF1F4B1B6B19461F48FFF709FF1C4B13
:1014B000DB6B19461D48FFF703FFBB6803F0800391
:1014C000002B03D079681A48FFF7FAFEBB6803F4D3
:1014D0000043002B03D039681648FFF7F1FE164889
:1014E000FFF7EEFEB9691548FFF7EAFE00BF1037B7
:1014F000BD4680BDA03F0008B03F0008C03F0008C7
:10150000D03F0008E03F0008F03F0008004000081E
:101510001040000820400008304000083C4000080F
:1015200000ED00E04C4000085C4000086C40000802
:101530007C4000088C4000089C400008A440000843
:1015400080B485B000AF78600B467B807B689B6978
:10155000FB60FB681B887A889A4213D17B681B6802
:10156000BB60BB68032B03D0042B03D000230AE02D
:1015700000BF00E000BF7B689B699A1C7B689A6192
:10158000012300E0002318461437BD4680BC704795
:1015900080B400AF124B1B68114A43F00103136083
:1015A0000F4B00229A600E4B1B680D4A23F0847388
:1015B00023F4803313600A4B0A4A5A60084B1B68B5
:1015C000074A23F480231360054B0022DA60064BA0
:1015D0004FF000629A6000BFBD4680BC704700BFFC
:1015E000003802401030002400ED00E080B487B0E5
:1015F00000AF00233B6100237B610223FB600023DB
:10160000BB6002237B60314B9B6803F00C033B61A2
:101610003B69042B07D0082B09D0002B3DD12C4B64
:101620002C4A1A603DE02A4B2B4A1A6039E0274BBE
:101630005B689B0D03F00103BB60244B5B6803F008
:101640003F037B60BB68002B0CD0234A7B68B2FB56
:10165000F3F31E4A52689209C2F3080202FB03F335
:101660007B610BE01B4A7B68B2FBF3F3174A5268BD
:101670009209C2F3080202FB03F37B61134B5B6820
:101680001B0C03F0030301335B00FB607A69FB680A
:10169000B2FBF3F30E4A136003E00D4B0D4A1A60E0
:1016A00000BF0A4B9B681B0903F00F030B4AD35C76
:1016B0003B61074B1A683B6922FA03F3044A136043
:1016C00000BF1C37BD4680BC704700BF00380240D9
:1016D0000C0000200024F40040787D01E840000860
:1016E000B0B584B000AFF860B9607A6000F020FA5D
:1016F0000021012000F08AFA0121012000F086FA81
:101700007B68C74A93421BD10421042000F07EFA73
:1017100006220221C34801F073F8072206210220A5
:1017200000F0A6FF07220221BE4801F069F8072257
:101730000721022000F09CFF252000F0E9FA3EE09E
:101740007B68B94A93421BD11121032000F05EFA55
:1017500002220121B34801F053F80722022101209F
:1017600000F086FF03220121AE4801F049F807226C
:101770000321012000F07CFF262000F0C9FA1EE0C2
:101780007B68AA4A93421AD10521042000F03EFA50
:101790000C220121A34801F033F808220C2101207A
:1017A00000F066FF0B2201219E4801F029F8082273
:1017B0000B21012000F05CFF472000F0A9FAFB6834
:1017C0009B7A002B02D0012B6FD0CFE0FB681B6807
:1017D00019464FF000024FF000034FF00004940050
:1017E00044EA91748B001A4623468BA1D1E900018B
:1017F00001F046FD03460C461A468D4BA3FB02231F
:101800005B091D01FB681B6819464FF000024FF091
:1018100000034FF00004940044EA91748B001A46D0
:1018200023467DA1D1E9000101F02AFD03460C46C3
:101830001A467F4BA3FB02135B09642101FB03F3F0
:10184000D31A1B0132337A4AA2FB03235B0903F04C
:10185000F0031D44FB681B6819464FF000024FF06F
:1018600000034FF00004940044EA91748B001A4680
:10187000234669A1D1E9000101F002FD03460C46AF
:101880001A466B4BA3FB02135B09642101FB03F3B4
:10189000D31A1B013233664AA2FB03235B0903F010
:1018A0000F03EA187B689A6060E0FB681B681946C2
:1018B0004FF000024B1842EB02041A46234656A191
:1018C000D1E9000101F0DCFC03460C461A46584BF6
:1018D000A3FB02235B091D01FB681B6819464FF03F
:1018E00000024B1842EB02041A4623464AA1D1E9F2
:1018F000000101F0C5FC03460C461A464C4BA3FB05
:1019000002135B09642101FB03F3D31ADB003233BA
:10191000474AA2FB03235B095B0003F4F8731D44F1
:10192000FB681B6819464FF000024B1842EB02049B
:101930001A46234638A1D1E9000101F0A1FC034673
:101940000C461A463A4BA3FB02135B09642101FBC8
:1019500003F3D31ADB003233354AA2FB03235B09BE
:1019600003F00703EA187B689A6000BFFB689B7A64
:10197000DA03FB685B7A5B031A43FB681B791B0382
:101980001A43FB689B799B021A43FB68DB795B0275
:1019900013431A467B68DA60FB681B7A012B0AD076
:1019A000022B0FD0002B1AD17B68DB6843F00802B2
:1019B0007B68DA6013E07B68DB6843F004027B68D5
:1019C000DA600CE07B68DB6843F008027B68DA6071
:1019D0007B68DB6843F004027B68DA6000BFFB6869
:1019E0005B791A03BB681B78DB021A43BB689B78E0
:1019F0005B021A43BB685B789B021A43BB68DB78C7
:101A00001B0213431A467B681A617B6800221A6026
:101A100000BF1037BD46B0BD00C2EB0B0000000098
:101A2000001001402C00002000440140001401403F
:101A30001F85EB5180B483B000AF78607B68DB68B2
:101A400043F400527B68DA6000BF0C37BD4680BCAF
:101A5000704780B483B000AF78600B46FB70FB78B2
:101A6000002B09D0012B00D00DE07B68DB6843F030
:101A700020027B68DA6006E07B68DB6823F02002E6
:101A80007B68DA6000BF00BF0C37BD4680BC704782
:101A900080B483B000AF78607B685B68DBB21846C7
:101AA0000C37BD4680BC704780B483B000AF78600F
:101AB000034A7B68136000BF0C37BD4680BC70478B
:101AC0004C2A002080B500AF054B00221A60054B60
:101AD0001B68002B02D0034B1B68984700BF80BDDA
:101AE000001001404C2A002080B500AF054B0022B9
:101AF0001A60054B1B68002B02D0034B1B689847EC
:101B000000BF80BD00440140442A002080B500AFE2
:101B1000054B00221A60054B1B68002B02D0034BBB
:101B20001B68984700BF80BD00140140482A002070
:101B300080B400AF334B1B68324A23F40023136098
:101B4000304B1B682F4A23F4802313602D4B9B6876
:101B50002C4A23F0010393602A4B9B68294A23F007
:101B600002039360274B9B68264A23F0100393607F
:101B7000244B9B68234A23F020039360214B9B68EE
:101B8000204A23F0400393601E4B9B681D4A43F09C
:101B9000800393601B4B9B681A4A23F48063936015
:101BA000184B9B68174A23F400639360154B9B689E
:101BB000144A23F480539360124B9B68114A23F418
:101BC000005393600F4B9B680E4A23F4804393604D
:101BD0000C4B9B680B4A23F400439360094B0A4A61
:101BE0005A60084B5B68074A43F480035360054B17
:101BF0001B68044A43F48033136000BFBD4680BCB9
:101C0000704700BF00380240204E040080B483B00B
:101C100000AF786039603B681F2B6FD87B68013B51
:101C2000072B6DD801A252F823F000BF4D1C00080D
:101C3000631C0008791C00088F1C0008A51C000804
:101C4000BB1C0008D11C0008E71C00082F4B1B6BB5
:101C500001213A6801FA02F211462C4A0B43136340
:101C60004FE02A4B5B6B01213A6801FA02F2114600
:101C7000264A0B43536344E0244B1B6C01213A6812
:101C800001FA02F21146214A0B43136439E01F4B5B
:101C90005B6C01213A6801FA02F211461B4A0B43C0
:101CA00053642EE0194B1B6D01213A6801FA02F2D0
:101CB0001146164A0B43136523E0144B5B6D01215B
:101CC0003A6801FA02F21146104A0B43536518E0D4
:101CD0000E4B1B6E01213A6801FA02F211460B4AC3
:101CE0000B4313660DE0094B5B6E01213A6801FA64
:101CF00002F21146054A0B43536602E000BF00E0C2
:101D000000BF00BF0C37BD4680BC704700380240A2
:101D100080B483B000AF0346FB71FB7903F01F036F
:101D2000012202FA03F1054AFB795B09DBB242F8B2
:101D3000231000BF0C37BD4680BC704700E100E0B7
:101D400080B500AFFFF7F4FE0F210520FFF75EFF1F
:101D500000BF80BD80B483B000AF0346FB7100BFFD
:101D6000234BDB681B0C03F00103012BF8D0204B45
:101D70001B69DB0F03F00103012B05D11C4B1D4A2E
:101D80005A601B4B1C4A5A60194B1B69184A03F0D6
:101D900078031361164B1B69FA79D2001146144A75
:101DA0000B431361124B1B69114A43F00203136189
:101DB0000F4B1B690E4A43F48033136100BF0C4B79
:101DC000DB681B0C03F00103012BF8D0084BDB6828
:101DD000074A43F00103D360054B1B69044A23F013
:101DE0000203136100BF0C37BD4680BC704700BFC3
:101DF000003C024023016745AB89EFCD80B584B03C
:101E000000AF03460A46FB711346BB71FB79002BFA
:101E10000DD0FB79FB7306E0FB7B1846FFF79AFFBA
:101E2000FB7B0133FB73FA7BBB799A42F4D900BF89
:101E30001037BD4680BD000080B487B000AFF860A9
:101E40007A603B600B46FB7200BF524BDB681B0C99
:101E500003F00103012BF8D04E4B1B69DB0F03F09D
:101E60000103012B05D14B4B4B4A5A60494B4B4A5E
:101E70005A60484B1B69474A03F440731361454B52
:101E80001B69FA7A12021146424A0B431361414B15
:101E90001B69404A43F001031361FB7A012B27D0F1
:101EA000022B49D0002B6AD10023FB751BE0FB7D80
:101EB0009B007A6813441A68FB68D2B21A70FB68F8
:101EC0000133FB6000BF334BDB681B0C03F00103E5
:101ED000012BF8D02F4BDB682E4A43F00103D3606F
:101EE000FB7D0133FB75FB7D3A689A42DFD846E003
:101EF0000023BB751BE0BB7D9B007A6813441A6806
:101F0000FB6892B21A80FB680233FB6000BF214B72
:101F1000DB681B0C03F00103012BF8D01D4BDB68C1
:101F20001C4A43F00103D360BB7D0133BB75BB7D0D
:101F30003A689A42DFD822E000237B751AE07B7D65
:101F40009B007A681A44FB6812681A60FB680433C5
:101F5000FB6000BF0F4BDB681B0C03F00103012B80
:101F6000F8D00C4BDB680B4A43F00103D3607B7D58
:101F700001337B757B7D3A689A42E0D800BF054B00
:101F80001B69044A23F00103136100BF1C37BD46DF
:101F900080BC7047003C024023016745AB89EFCD10
:101FA00080B483B000AF0346FB710B46BB71134690
:101FB0007B71BB790F2B5ED8FB79022B1FD0032BD3
:101FC0003ED0012B00D05DE0BB790C2B55D8304BB7
:101FD0001B68BA795200032101FA02F2D24311467A
:101FE0002B4A0B4013602A4B1B687979BA7952004F
:101FF00001FA02F21146264A0B4313603DE0BB7919
:10200000022B3CD0BB79032B39D0BB79042B36D0C3
:10201000204B1B68BA795200032101FA02F2D24325
:1020200011461C4A0B4013601A4B1B687979BA7928
:10203000520001FA02F21146164A0B4313601EE0E9
:10204000BB790C2B1DD9144B1B68BA7952000321A4
:1020500001FA02F2D24311460F4A0B4013600E4BB5
:102060001B687979BA79520001FA02F211460A4ADC
:102070000B43136005E000BF04E000BF02E000BFB7
:1020800000E000BF00BF0C37BD4680BC704700BFFA
:1020900000000240000402400008024080B483B007
:1020A00000AF0346FB710B46BB7113467B71BB79D6
:1020B0000F2B78D87B79002B3AD1FB79022B13D0E8
:1020C000032B26D0012B00D07AE0BB790C2B6CD8E7
:1020D0003E4B5B68BA79012101FA02F2D243114604
:1020E0003A4A0B40536060E0BB79022B5FD0BB796A
:1020F000032B5CD0BB79042B59D0354B5B68BA7984
:10210000012101FA02F2D2431146314A0B405360D9
:102110004DE0BB790C2B4CD92E4B5B68BA79012171
:1021200001FA02F2D24311462A4A0B40536040E0C2
:102130007B79012B37D1FB79022B12D0032B24D0D2
:10214000012B00D03CE0BB790C2B34D81F4B5B68D3
:10215000BA79012101FA02F211461C4A0B4353607D
:1021600029E0BB79022B28D0BB79032B25D0BB7982
:10217000042B22D0164B5B68BA79012101FA02F2D6
:102180001146134A0B43536017E0BB790C2B16D949
:10219000104B5B68BA79012101FA02F211460D4A2F
:1021A0000B4353600BE000BF0AE000BF08E000BF34
:1021B00006E000BF04E000BF02E000BF00E000BF97
:1021C00000BF0C37BD4680BC704700BF0000024016
:1021D000000402400008024080B483B000AF034610
:1021E000FB710B46BB7113467B71BB790F2B5ED81D
:1021F000FB79022B1FD0032B3ED0012B00D05DE0DA
:10220000BB790C2B55D8304B9B68BA79520003210F
:1022100001FA02F2D24311462B4A0B4093602A4B3B
:102220009B687979BA79520001FA02F21146264A7E
:102230000B4393603DE0BB79022B3CD0BB79032B71
:1022400039D0BB79042B36D0204B9B68BA79520029
:10225000032101FA02F2D24311461C4A0B4093605B
:102260001A4B9B687979BA79520001FA02F2114649
:10227000164A0B4393601EE0BB790C2B1DD9144BFF
:102280009B68BA795200032101FA02F2D243114647
:102290000F4A0B4093600E4B9B687979BA795200D4
:1022A00001FA02F211460A4A0B43936005E000BFAF
:1022B00004E000BF02E000BF00E000BF00BF0C3739
:1022C000BD4680BC704700BF0000024000040240D1
:1022D0000008024080B483B000AF0346FB710B4698
:1022E000BB7113467B71BB790F2B5ED8FB79022B38
:1022F0001FD0032B3ED0012B00D05DE0BB790C2B0F
:1023000055D8304BDB68BA795200032101FA02F24A
:10231000D24311462B4A0B40D3602A4BDB687979B4
:10232000BA79520001FA02F21146264A0B43D360F1
:102330003DE0BB79022B3CD0BB79032B39D0BB7974
:10234000042B36D0204BDB68BA795200032101FA06
:1023500002F2D24311461C4A0B40D3601A4BDB6891
:102360007979BA79520001FA02F21146164A0B4302
:10237000D3601EE0BB790C2B1DD9144BDB68BA79F6
:102380005200032101FA02F2D24311460F4A0B40D8
:10239000D3600E4BDB687979BA79520001FA02F208
:1023A00011460A4A0B43D36005E000BF04E000BFBA
:1023B00002E000BF00E000BF00BF0C37BD4680BC9C
:1023C000704700BF000002400004024000080240C5
:1023D00080B483B000AF0346FB710B46BB7113465C
:1023E0007B71BB790F2B78D87B79002B3AD1FB79A5
:1023F000022B13D0032B26D0012B00D07AE0BB791F
:102400000C2B6CD83E4B5B69BA79012101FA02F2C0
:10241000D24311463A4A0B40536160E0BB79022B2C
:102420005FD0BB79032B5CD0BB79042B59D0354BE3
:102430005B69BA79012101FA02F2D2431146314AAD
:102440000B4053614DE0BB790C2B4CD92E4B5B6993
:10245000BA79012101FA02F2D24311462A4A0B400D
:10246000536140E07B79012B37D1FB79022B12D0ED
:10247000032B24D0012B00D03CE0BB790C2B34D8AB
:102480001F4B5B69BA79012101FA02F211461C4A1D
:102490000B43536129E0BB79022B28D0BB79032B76
:1024A00025D0BB79042B22D0164B5B69BA79012168
:1024B00001FA02F21146134A0B43536117E0BB794C
:1024C0000C2B16D9104B5B69BA79012101FA02F283
:1024D00011460D4A0B4353610BE000BF0AE000BFF9
:1024E00008E000BF06E000BF04E000BF02E000BF5C
:1024F00000E000BF00BF0C37BD4680BC704700BF86
:1025000000000240000402400008024080B483B092
:1025100000AF03460A46FB711346BB71BB790F2B14
:1025200037D8FB79022B12D0032B24D0012B00D0FB
:1025300036E0BB790C2B2ED81C4B5B69BA79012194
:1025400001FA02F21146194A4B40536123E0BB796C
:10255000022B22D0BB79032B1FD0BB79042B1CD0BC
:10256000134B5B69BA79012101FA02F21146104A54
:102570004B40536111E0BB790C2B10D90D4B5B69BB
:10258000BA79012101FA02F211460A4A4B4053611D
:1025900005E000BF04E000BF02E000BF00E000BFB4
:1025A00000BF0C37BD4680BC704700BF0000024032
:1025B000000402400008024080B485B000AF03462A
:1025C0000A46FB711346BB710023FB73BB790F2BCB
:1025D0003AD8FB79022B13D0032B26D0012B00D045
:1025E00039E0BB790C2B31D81E4B1B69BA7901211C
:1025F00001FA02F21A40BB7922FA03F3FB7325E0D9
:10260000BB79022B24D0BB79032B21D0BB79042BBF
:102610001ED0154B1B69BA79012101FA02F21A404A
:10262000BB7922FA03F3FB7312E0BB790C2B11D9AF
:102630000E4B1B69BA79012101FA02F21A40BB79EB
:1026400022FA03F3FB7305E000BF04E000BF02E0E1
:1026500000BF00E000BFFB7B18461437BD4680BCBE
:10266000704700BF00000240000402400008024022
:1026700080B483B000AF0346FB710B46BB711346B9
:102680007B71BB790F2B00F2AF80BB79072B4FD842
:10269000FB79022B1CD0032B32D0012B00D0A4E0FD
:1026A000544B1B6ABA7992000F2101FA02F2D2430D
:1026B0001146504A0B4013624E4B1B6A7979BA7926
:1026C000920001FA02F211464A4A0B4313628CE06F
:1026D000494B1B6ABA7992000F2101FA02F2D243E8
:1026E0001146454A0B401362434B1B6A7979BA790C
:1026F000920001FA02F211463F4A0B43136274E062
:102700003E4B1B6ABA7992000F2101FA02F2D243C2
:1027100011463A4A0B401362384B1B6A7979BA79F1
:10272000920001FA02F21146344A0B4313625CE054
:10273000BB79072B58D9BB790F2B55D8FB79022BC6
:102740001ED0032B36D0012B00D04EE0294B5B6A04
:10275000BA79083A92000F2101FA02F2D2431146E7
:10276000244A0B405362234B5B6A7979BA79083A61
:10277000920001FA02F211461E4A0B43536234E002
:102780001D4B5B6ABA79083A92000F2101FA02F2F6
:10279000D2431146184A0B405362174B5B6A797952
:1027A000BA79083A920001FA02F21146124A0B4332
:1027B00053621AE0114B5B6ABA79083A92000F2112
:1027C00001FA02F2D24311460C4A0B4053620B4B02
:1027D0005B6A7979BA79083A920001FA02F21146F5
:1027E000064A0B43536200E000BF00BF0C37BD46F2
:1027F00080BC704700000240000402400008024014
:1028000080B582B000AF78600B46FB701346BB709A
:10281000FFF78EF9FB78012B04D100210120FFF78F
:10282000F5F90EE0FB78022B04D101210120FFF71E
:10283000EDF906E0FB78032B03D102210120FFF71D
:10284000E5F97B681A78B978FB781846FFF7A8FB9A
:102850007B685A78B978FB781846FFF71FFC7B68CD
:102860009A78B978FB781846FFF7B6FC7B68DA7877
:10287000B978FB781846FFF72DFD00BF0837BD4635
:1028800080BD000080B582B000AF0346FB71FB79CC
:10289000022B0AD0032B0ED0012B00D011E0052211
:1028A00002210A48FFF7ACFF0BE001220221074892
:1028B000FFF7A6FF05E0022201210448FFF7A0FF71
:1028C00000BF00BF0837BD4680BD00BF2400002008
:1028D00080B588B000AF0346FB710123FB77FB791D
:1028E000022B1ED0032B36D0012B00D052E0052145
:1028F0000220FFF761FE0346002B46D12C4BBB6143
:1029000000E000BFBB695A1EBA61002BF9D1052156
:102910000220FFF751FE0346002B36D10023FB7740
:1029200033E001210220FFF747FE0346002B2ED1A2
:102930001F4B7B6100E000BF7B695A1E7A61002B50
:10294000F9D101210220FFF737FE0346002B1ED1EB
:102950000023FB771BE002210120FFF72DFE034639
:10296000002B16D1124B3B6100E000BF3B695A1EA1
:102970003A61002BF9D102210120FFF71DFE034629
:10298000002B06D10023FB7703E000BF02E000BF6D
:1029900000E000BF064BFB6000E000BFFB685A1E72
:1029A000FA60002BF9D1FB7F18462037BD4680BD69
:1029B000A086010080B582B000AF0346FB71FB79B1
:1029C000013B072B42D801A252F823F0ED29000861
:1029D000F9290008052A0008112A00081D2A000804
:1029E000292A0008352A0008412A0008002202216D
:1029F0001948FFF705FF2AE0012202211648FFF7D8
:102A0000FFFE24E0022201211348FFF7F9FE1EE039
:102A1000032201211048FFF7F3FE18E004220121F0
:102A20000D48FFF7EDFE12E0052201210A48FFF7ED
:102A3000E7FE0CE0062201210748FFF7E1FE06E071
:102A4000072201210448FFF7DBFE00E000BF00BFC2
:102A50000837BD4680BD00BF1C00002080B582B095
:102A600000AF0346FB71FB79013B072B42D801A263
:102A700052F823F0952A0008A12A0008AD2A000880
:102A8000B92A0008C52A0008D12A0008DD2A000852
:102A9000E92A0008012200210220FFF799FC2AE020
:102AA000012201210220FFF793FC24E001220221F0
:102AB0000120FFF78DFC1EE0012203210120FFF71A
:102AC00087FC18E0012204210120FFF781FC12E0BD
:102AD000012205210120FFF77BFC0CE001220621E9
:102AE0000120FFF775FC06E0012207210120FFF716
:102AF0006FFC00E000BF00BF0837BD4680BD00BFCF
:102B000080B582B000AF0346FB71FB79013B072B18
:102B100042D801A252F823F0392B0008452B0008B7
:102B2000512B00085D2B0008692B0008752B00084D
:102B3000812B00088D2B0008002200210220FFF7C6
:102B400047FC2AE0002201210220FFF741FC24E09B
:102B5000002202210120FFF73BFC1EE0002203219E
:102B60000120FFF735FC18E0002204210120FFF7C7
:102B70002FFC12E0002205210120FFF729FC0CE0C8
:102B8000002206210120FFF723FC06E00022072196
:102B90000120FFF71DFC00E000BF00BF0837BD4665
:102BA00080BD00BF80B582B000AF0346FB71FB79EA
:102BB000013B072B3AD801A252F823F0DD2B000885
:102BC000E72B0008F12B0008FB2B0008052C000860
:102BD0000F2C0008192C0008232C000800210220CB
:102BE000FFF794FC23E001210220FFF78FFC1EE099
:102BF00002210120FFF78AFC19E003210120FFF7E1
:102C000085FC14E004210120FFF780FC0FE0052182
:102C10000120FFF77BFC0AE006210120FFF776FC8C
:102C200005E007210120FFF771FC00E000BF00BFB5
:102C30000837BD4680BD00BF80B500AFFFF780F804
:102C400000BF80BD80B485B000AF78600023FB601A
:102C50007B682F2B06D97B68392B03D87B68303BE8
:102C6000FB6008E07B68402B05D97B68462B02D8C7
:102C70007B68373BFB60FB6818461437BD4680BC59
:102C8000704780B5F4B000AF3B1D18603B1D1B685A
:102C900001331B781846FFF7D5FFC7F8C8013B1D65
:102CA0001B6802331B781846FFF7CCFFC7F8C40136
:102CB000D7F8C8311B01D7F8C4211343C7F8C03176
:102CC0003B1D1B6803331B781846FFF7BBFFC7F893
:102CD000BC013B1D1B6804331B781846FFF7B2FF8D
:102CE000C7F8B8013B1D1B6805331B781846FFF772
:102CF000A9FFC7F8B4013B1D1B6806331B781846B3
:102D0000FFF7A0FFC7F8B001D7F8BC311A03D7F816
:102D1000B8311B021A43D7F8B4311B011A43D7F854
:102D2000B031134343F00063C7F8AC310023C7F858
:102D3000CC314DE0D7F8CC319B0009333A1D1268F5
:102D400013441B781846FFF77DFFC7F8A801D7F892
:102D5000CC319B000A333A1D126813441B78184685
:102D6000FFF770FFC7F8A401D7F8CC319B000B33F5
:102D70003A1D126813441B781846FFF763FFC7F823
:102D8000A001D7F8CC3103339B003A1D12681344DD
:102D90001B781846FFF756FFC7F89C01D7F8A031FB
:102DA0001A03D7F89C311B021A43D7F8A8311B012C
:102DB0001A43D7F8A43142EA030107F10C03D7F80C
:102DC000CC2143F82210D7F8CC310133C7F8CC31ED
:102DD000D7F8C0315B08D7F8CC219A42AAD3D7F8EC
:102DE000C0315B0807F10C020121D7F8AC01FFF7F5
:102DF00023F800BF07F5E877BD4680BD80B483B0F7
:102E000000AF78607B681800054A7B681360D0F8D3
:102E100000D04068004700BF0C37BD4680BC7047FB
:102E200008ED00E080B588B000AF786039607B685D
:102E300001331B781846FFF705FFF8617B68023302
:102E40001B781846FFF7FEFEB861FB691B01BA69E3
:102E500013437B617B695B0009337A6813441B78F9
:102E60001846FFF7EFFE38617B6905335B007A682F
:102E700013441B781846FFF7E5FEF8603B691A011A
:102E8000FB681A433B681A6000BF2037BD4680BD0F
:102E900080B58AB000AF7860396000237B627B68C0
:102EA00001331B781846FFF7CDFEF8617B680233CB
:102EB0001B781846FFF7C6FEB861FB691B01BA69AB
:102EC00013437B617B6904335B003B6101233B62FD
:102ED0001AE07A683B6A13441B781846FFF7B2FE83
:102EE000F8603B6A01337A6813441B781846FFF791
:102EF000A9FEB860FB681A01BB6813437A6A1344E1
:102F00007B623B6A02333B623A6A3B699A42E0D396
:102F10007B6A83F0FF037B627B6A01337B627B6A9F
:102F2000DBB27B623B687A6A1A6000BF2837BD4615
:102F300080BD80B487B000AFF860B9607A600023CC
:102F40007B6110E07B699B00FA6813441A687B6917
:102F50009B00B9680B441B689A4201D0012307E02B
:102F60007B6901337B617A697B689A42EAD30023EB
:102F700018461C37BD4680BC704780B485B000AF92
:102F800078607B68FB60FB681B68B3F1FF3F06D08D
:102F9000FB681B681B0D1B05B3F1005F01D001230B
:102FA0000FE0FB6804331B68B3F1FF3F06D0FB68FA
:102FB00004331B6803F00103002B01D1012300E05F
:102FC000002318461437BD4680BC704780B500AF5B
:102FD000FDF796FA00F004F8FEF708FB00BF80BD8D
:102FE00080B594B000AF0023BB60294B1B6C284A0E
:102FF00043F080531364264B1B6C03F08053BB607B
:10300000BB6800237B60234B1B68224A43F4404388
:103010001360204B1B6803F440437B607B680123F3
:103020003B6201237B624FF48003FB6319233B6403
:103030004FF4A8737B640423BB640723FB6402235F
:10304000BB6307F120031846FDF7D2FB0F23FB609B
:1030500002233B6100237B614FF48053BB6100235B
:10306000FB6107F10C0302211846FDF781FEFEF714
:10307000B9F80246084BA3FB02239B091846FDF74B
:1030800083FB0420FDF78CFB00BF5037BD4680BD9D
:103090000038024000700040D34D621098B500AF78
:1030A000264B1B881C462648FEF7F2FC03461A46B0
:1030B000244B1A55214B1B88013B224AD35C0D2B14
:1030C00031D11E4B1B881A461E4B9B5C0A2B2AD102
:1030D0001A4B00221A801B4BDB79302B17D1194B6E
:1030E0001B7A302B13D1184B1B885A1C91B2164AED
:1030F00011809B00154A134419461248FFF7C8FE79
:103100001048FFF7BEFD0120FFF74CFD12E00D4B0C
:10311000DB79302B0ED10B4B1B7A312B0AD10C4BA8
:1031200000221A7006E0054B1B8801339AB2034B4C
:103130001A8000E000BF00BF98BD00BF68290020D2
:1031400000100140B4330020002F0020502A00203E
:103150006C28002080B582B000AFEA23BB8000233A
:10316000FB700023BB70FFF767FD07210220FEF70D
:1031700045FE364A36493748FEF7B2FA3348FEF77D
:1031800059FC354A32493348FEF7AAFA3348FEF76C
:103190008BFC01213048FEF75CFC2F48FEF74AFC0F
:1031A0000120FFF707FC0220FFF704FC0120FFF7D6
:1031B00069FB0023FB800FE0FB882C2202FB03F35A
:1031C000274A9818FB889B00264A13441946FFF7A4
:1031D00029FEFB880133FB80FA88BB889A42EBD337
:1031E00000BF214B1B78002BFBD1BB881A461F491F
:1031F0001C48FFF79EFE0346FB701D48FFF7BDFE0F
:103200000346BB70FB78012B02D0BB78012B03D1A6
:103210000120FFF723FC05E00120FFF771FC0220ED
:10322000FFF71CFCFB78002BFCD1BB78002BF9D1FD
:103230000120FFF74DFB0346002BF3D10220FFF7DF
:103240005FFC0B48FFF7DAFDECE700BF001401401C
:103250006429002010000020001001409D3000086B
:1032600034000020042F00206C280020502A002069
:103270000080000880B400AF00BFBD4680BC70472E
:1032800053B94AB9002908BF00281CBF4FF0FF31CD
:103290004FF0FF3000F072B9ADF1080C6DE904CECB
:1032A00000F006F8DDF804E0DDE9022304B0704721
:1032B0002DE9F047089E04468846002B4BD18A42F0
:1032C000154667D9B2FA82F24AB1C2F1200701FA73
:1032D00002F320FA07F7954047EA030894404FEAC3
:1032E000154E230CB8FBFEF71FFA85FC0EFB178862
:1032F00043EA084307FB0CF1994209D9EB1807F19F
:10330000FF3080F01B81994240F21881023F2B442C
:103310005B1AA4B2B3FBFEF00EFB103344EA034485
:1033200000FB0CFCA44509D92C1900F1FF3380F0F7
:103330000781A44540F2048102382C4440EA07404A
:10334000A4EB0C0400271EB1D4400023C6E90043BF
:103350003946BDE8F0878B4209D9002E00F0EB809A
:103360000027C6E9000138463946BDE8F087B3FAC0
:1033700083F7002F47D18B4202D3824200F2FA80BA
:10338000841A61EB030301209846002EE0D0C6E9C1
:103390000048DDE702B9FFDEB2FA82F2002A40F00F
:1033A0008F80491B4FEA154E1FFA85F80127B1FBA4
:1033B000FEFC230C0EFB1C1143EA014308FB0CF13D
:1033C000994207D9EB180CF1FF3002D2994200F272
:1033D000CD808446591AA3B2B1FBFEF00EFB101447
:1033E00043EA044408FB00F8A04507D92C1900F172
:1033F000FF3302D2A04500F2B6801846A4EB0804C1
:1034000040EA0C409FE7C7F1200CBB4022FA0CFEBB
:103410004EEA030E01FA07F420FA0CF521FA0CF338
:103420004FEA1E482543B3FBF8F92C0C08FB19336F
:103430001FFA8EFA44EA034309FB0AF49C4202FA9B
:1034400007F200FA07F10BD91EEB030309F1FF3075
:1034500080F087809C4240F28480A9F10209734485
:103460001B1BADB2B3FBF8F008FB103345EA034475
:1034700000FB0AFAA24508D91EEB040400F1FF3351
:103480006BD2A24569D90238744440EA0940A0FBD6
:103490000289A4EB0A044C45C2464B4654D351D092
:1034A000002E69D0B1EB0A0564EB030404FA0CFCAE
:1034B000FD40FC404CEA0505C6E90054002747E7FB
:1034C000C2F1200320FA03F7954001FA02F021FA35
:1034D00003F34FEA154E3843010CB3FBFEF71FFA16
:1034E00085F80EFB173341EA034107FB08F38B42D3
:1034F00004FA02F407D9691807F1FF3C2FD28B4276
:103500002DD9023F2944CB1A81B2B3FBFEF00EFB4A
:10351000103341EA034100FB08F38B4207D96918D5
:1035200000F1FF3C17D28B4215D902382944C91A41
:1035300040EA07473BE73746304609E70746E7E6F4
:103540001846FBE64145ABD2B8EB020A69EB0E0226
:1035500001381346A4E76046E9E7184695E7674651
:10356000D1E781467CE702382C4447E7ACF1020CF6
:103570002B442FE7384608E73746E9E6704700BF97
:10358000014B1868704700BF70280020034613F8ED
:10359000012B002AFBD1181A0138704730B5141ED0
:1035A00005469BB0184605DA8B232B604FF0FF30A1
:1035B0001BB030BD4FF40273ADF80C3014BF04F1F2
:1035C000FF332346029305934FF6FF730091049156
:1035D000ADF80E3002461E9B6946284600F072F890
:1035E000431CBCBF8B232B60002CE1D0009B00222E
:1035F0001A70DDE707B5009313460A4601460348F3
:103600000068FFF7CBFF03B05DF804FB70280020D3
:103610002DE9F0478E689E4282460C4690469946B8
:1036200037D88A8912F4906F31D0256809696F1AEA
:103630006569022305EB450595FBF3F509F10103E7
:103640003B449D4238BF1D46530530D5294600F006
:1036500079FB064650B90C23CAF80030A38943F021
:103660004003A3814FF0FF30BDE8F0873A4621695F
:1036700000F0F6FAA38923F4906343F08003A3815A
:10368000266165613E44ED1B2660A5604E464E45B1
:1036900000D94E4632464146206800F0ECFAA36855
:1036A0009B1BA36023681E4426600020DCE72A469B
:1036B00000F0A2FB06460028E2D12169504600F046
:1036C000F3FAC8E72DE9F04F9DB0804603938B894C
:1036D0001D060C4616460FD50B696BB9402100F04C
:1036E00031FB2060206128B90C23C8F800304FF06E
:1036F000FF30C7E0402363610023099320238DF846
:10370000293030238DF82A304FF0010B37463D46E3
:1037100015F8013B0BB1252B3ED1B7EB060A0BD0B8
:103720005346324621464046FFF772FF013000F013
:10373000A480099B534409933B78002B00F09D80A3
:1037400000234FF0FF32CDE90523049307938DF852
:1037500053301A932F46052217F8011B4F4800F0EB
:103760002FFA049BD0B9D90644BF20228DF85320EC
:103770001A0744BF2B228DF853202A782A2A15D005
:10378000079A2F4600200A25394611F8013B303BA5
:10379000092B4DD9B8B10FE02F46B8E73F4A801A40
:1037A0000BFA00F0184304903D46D3E7039A111D2D
:1037B00012680391002A01DB079204E0524243F0B1
:1037C0000203079204933B782E2B0CD17B782A2B93
:1037D00033D1039B1A1D1B680392002BB8BF4FF017
:1037E000FF33023705932E4D39780322284600F027
:1037F000E7F938B14023401B03FA00F0049B034370
:1038000001370493397827488DF8281006227E1C4A
:1038100000F0D6F9002838D0234B13BB039B0733A5
:1038200023F0070308330393099B4B4409936DE787
:1038300005FB023201200F46A6E70023013705935E
:1038400019460A25384610F8012B303A092A03D9BF
:10385000002BC8D00591C6E705FB012101230746CF
:10386000F0E703AB00932246104B04A94046AFF3A8
:103870000080B0F1FF3F8146D6D1A3895B063FF5BA
:1038800036AF09981DB0BDE8F08F03AB0093224618
:10389000064B04A9404600F081F8EAE7F84000082A
:1038A000FE40000802410008000000001136000838
:1038B0002DE9F04791461F468A680B69DDF82080A4
:1038C0009342B8BF1346C9F8003091F8432006462A
:1038D0000C4612B10133C9F800302368990642BF83
:1038E000D9F800300233C9F80030256815F0060514
:1038F00007D104F1190AE368D9F800209B1AAB42FA
:1039000028DC94F843302268003318BF0123920664
:103910002DD404F1430239463046C047013020D04F
:103920002368E568D9F8002003F00603042B08BFDC
:10393000AD1AA36822690CBF25EAE57500259342FC
:10394000C4BF9B1AED184FF000091A344D451AD127
:10395000002008E00123524639463046C047013076
:1039600003D14FF0FF30BDE8F0870135C3E7E11820
:103970005A1C302081F84300224494F8451082F804
:1039800043100233C5E70123224639463046C0477B
:103990000130E6D009F10109D8E700002DE9F04334
:1039A00001F1430C0C46097E85B06E291746064688
:1039B00098460C9A00F0B38022D8632936D00AD8F2
:1039C000002900F0B980582900F0838004F14205F5
:1039D00084F8421032E0642901D06929F6D12068C8
:1039E0001368050603F104012AD51B681160002B3A
:1039F00003DA2D225B4284F843206F480A2239E023
:103A0000732900F09D8008D86F2920D07029DDD15E
:103A1000236843F02003236003E0752917D0782939
:103A2000D4D1782384F84530644855E01368191DD3
:103A30001B68116004F1420584F8423001238CE0D8
:103A40001B68116010F0400F18BF1BB2CFE713685E
:103A50002568181D1060280601D51B6802E068065D
:103A6000FBD51B8854486F2914BF0A220822002165
:103A700084F843106568A560002DC0F29580216828
:103A800021F004012160002B3DD1002D40F08E80FB
:103A90006546082A0BD12368DB0708D523696268CD
:103AA0009A42DEBF302305F8013C05F1FF35ACEB4F
:103AB00005032361CDF800803B4603AA214630462A
:103AC000FFF7F6FE01304DD14FF0FF3005B0BDE8F5
:103AD000F083394884F84510136821681D1D1B6860
:103AE00015600A060BD5CA0744BF41F020012160CA
:103AF0001BB9226822F0200222601022B7E74D068F
:103B000048BF9BB2EFE76546B3FBF2F102FB11330E
:103B1000C35C05F8013D0B460029F5D1B9E71368F0
:103B200025686169181D106028061B6801D5196099
:103B300002E06A06FBD51980002323616546B9E7D8
:103B40001368191D11601D6862680021284600F085
:103B500037F808B1401B606063682361002384F874
:103B60004330A7E723692A4639463046C04701302B
:103B7000AAD023689B0713D4E068039B9842B8BF80
:103B80001846A3E701234A4639463046C04701306C
:103B90009AD00135E368039A9B1AAB42F2DCEBE75B
:103BA000002504F11909F5E7002BACD1037884F85E
:103BB000423004F142056CE7094100081A4100084F
:103BC00001F0FF01102A2BDB10F0070F08D010F8CE
:103BD000013B013A8B422DD010F0070F42B3F6D1D2
:103BE000F0B441EA012141EA014122F007047FF0EB
:103BF00000070023F0E80256083C85EA010586EA42
:103C0000010685FA47F5A3FA87F586FA47F6A5FA7D
:103C100087F68EB9EED1F0BC01F0FF0102F0070289
:103C200032B110F8013B013A83EA010313B1F8D134
:103C30000020704701387047002D06BF3546033815
:103C4000073815F0010F07D1013015F4807F02BF4E
:103C5000013015F4C03F0130F0BC0138704700BF9F
:103C600010B5431E0A44914200D110BD11F8014B1A
:103C700003F8014FF7E7884210B501EB020307D8BC
:103C8000421E99420AD011F8014B02F8014FF8E7A1
:103C90008342F5D98118D21AD34200D110BD13F84E
:103CA000014D01F8014DF7E738B50546002945D02B
:103CB00051F8043C0C1F002BB8BFE41800F0D2F8F8
:103CC0001F4A1368104633B9636014602846BDE884
:103CD000384000F0C8B8A3420CD92168621893425A
:103CE00004BF1A685B68636004BF521822600460F6
:103CF000ECE713465A680AB1A242FAD91968581873
:103D0000A0420BD120680144581882421960DDD1CD
:103D1000106852685A6001441960D7E702D90C2331
:103D20002B60D3E7206821188A4204BF11685268CB
:103D3000626004BF091821605C60C7E738BD00BF3E
:103D40006C29002070B5CD1C25F0030508350C2D1D
:103D500038BF0C25002D064601DBA94203D90C23F0
:103D60003360002070BD00F07DF8214A14682146C0
:103D700091B9204C23681BB9304600F063F82060ED
:103D80002946304600F05EF8431C24D10C233360F2
:103D9000304600F068F8E4E70B685B1B18D40B2B87
:103DA0000FD90B60CD50CC18304600F05CF804F110
:103DB0000B00231D20F00700C31AD3D05A42E25053
:103DC000D0E78C424B6816BF636013600C46EBE78C
:103DD0000C464968CCE7C41C24F00304A04205D07B
:103DE000211A304600F02EF80130CFD02560DBE7F5
:103DF0006C29002070290020F8B5074614460E46AD
:103E000021B91146BDE8F840FFF79CBF22B9FFF782
:103E10004BFF25462846F8BD00F026F8A0420FD2F9
:103E200021463846FFF78EFF05460028F2D031467E
:103E30002246FFF715FF31463846FFF735FFE9E721
:103E40003546E7E738B5064C0023054608462360AB
:103E5000FDF7E2F9431C02D1236803B12B6038BDA2
:103E6000782900207047704751F8043C181F002B38
:103E7000BCBF0B58C01870472E2E2F737973746512
:103E80006D2F7372632F73746D333266342D6861D6
:103E90006C2F73746D3332663478785F68616C5F51
:103EA000636F727465782E630000000000000000EC
:103EB0000102030401020304060708092E2E2F73D2
:103EC000797374656D2F7372632F73746D333266FB
:103ED000342D68616C2F73746D3332663478785F7B
:103EE00068616C5F7263632E6300000061626F72D1
:103EF0007428292C2065786974696E672E2E2E002F
:103F00002C2066756E6374696F6E3A2000000000A5
:103F100000000000617373657274696F6E20222562
:103F20007322206661696C65643A2066696C65205D
:103F3000222573222C206C696E652025642573254B
:103F4000730A00006173736572745F706172616DF2
:103F50002829206661696C65643A2066696C652071
:103F6000222573222C206C696E652025640A0000CE
:103F70000A0000006D61696E28617267633D256407
:103F80002C20617267763D5B000000002C20000051
:103F900022257322000000005D293B0A000000007A
:103FA000537461636B206672616D653A0A000000AC
:103FB000205230203D2020253038580A00000000D3
:103FC000205231203D2020253038580A00000000C2
:103FD000205232203D2020253038580A00000000B1
:103FE000205233203D2020253038580A00000000A0
:103FF00020523132203D20253038580A0000000080
:10400000204C52203D2020253038580A0000000066
:10401000205043203D2020253038580A0000000061
:1040200020505352203D20253038580A000000000F
:104030004653522F4641523A0A000000204346534D
:1040400052203D2020253038580A00002048465391
:1040500052203D2020253038580A00002044465385
:1040600052203D2020253038580A00002041465378
:1040700052203D2020253038580A0000204D4D4662
:104080004152203D20253038580A00002042464148
:1040900052203D2020253038580A00004D697363B6
:1040A0000A000000204C522F4558435F524554559A
:1040B000524E3D20253038580A0000005B4861729E
:1040C000644661756C745D0A000000005B427573A4
:1040D0004661756C745D0A005B5573616765466186
:1040E000756C745D0A000000000000000000000014
:1040F0000102030406070809232D302B2000686CF9
:104100004C006566674546470030313233343536FA
:104110003738394142434445460030313233343533
:0B412000363738396162636465660061
:08412C0084F1FF7F0100000097
:1041340078563412E0280020000000000024F40027
:1041440080250000000000000200000001000000C3
:1041540000FFFFFF0000000100FFFFFF020000005E
:1041640000FFFFFF3A3130383030303030303030FB
:10417400303031323036313832303030383635380C
:104184003230303038363738323030303838340026
:104194003A313038303130303037443832303030E2
:1041A40038374638323030303839353832303030BC
:1041B4003830303030303030303331003A3130380C
:1041C40030323030303030303030303030303030E9
:1041D40030303030303030303030303030414238B0
:1041E40032303030383142003A31303830333030C8
:1041F4003041443832303030383030303030303084
:104204003041463832303030384231383230303054
:10421400383935003A31303830343030304335387D
:104224003230303038433538323030303843353836
:10423400323030303843353832303030384634005C
:104244003A31303830353030304335383230303030
:104254003843353832303030384335383230303006
:104264003843353832303030384534003A3130381C
:1042740030363030304335383230303038433538EA
:1042840032303030384335383230303038433538D6
:1042940032303030384434003A313038303730300E
:1042A40030433538323030303843353832303030BE
:1042B40038433538323030303843353832303030A6
:1042C400384334003A3130383038303030433538C0
:1042D4003230303038433538323030303843353886
:1042E40032303030383030303030303030303300ED
:1042F4003A3130383039303030303030303030309E
:1043040030303030303030303030303030303030A9
:104314003043353832303030383931003A31303882
:10432400304130303043353832303030384335382E
:104334003230303038433538323030303843353825
:1043440032303030383934003A313038304230305D
:10435400304335383230303038433538323030300D
:1043640038433538323030303843353832303030F5
:10437400383834003A31303830433030304335380F
:1043840032303030384335383230303038433538D5
:10439400323030303843353832303030383734000A
:1043A4003A313038304430303043353832303030C0
:1043B40038433538323030303843353832303030A5
:1043C4003830303030303030304233003A313038E9
:1043D400304530303043353832303030384335387A
:1043E4003230303038433538323030303830303095
:1043F40030303030304133003A31303830463030AC
:1044040030303030303030303030303030303030A8
:104414003030303030303030304335383230303076
:10442400383331003A313038313030303030303098
:10443400303030303043353832303030384335382E
:10444400323030303843353832303030383832005A
:104454003A31303831313030303030303030303043
:104464003030303030303030303030303030303048
:104474003030303030303030303546003A3130383A
:1044840031323030304335383230303038433538DB
:1044940032303030384335383230303038433538C4
:1044A40032303030383133003A3130383133303013
:1044B40030433538323030303830303030303030CE
:1044C40030303030303030303030303030303030E8
:1044D400304630003A3130383134303030303030DA
:1044E40030303030303030303030303030303030C8
:1044F40030303030304335383230303038453000A9
:104504003A3130383135303030433538323030306C
:104514003843353832303030384335383230303043
:104524003843353832303030384533003A3130385A
:104534003136303030433538323030303843353826
:10454400323030303830303030303030303030305D
:1045540030303030303731003A3130383137303064
:104564003030303030303030303030303030303047
:104574003030303030303030303030303030303037
:10458400304646003A31303831383030303030300F
:1045940030303030304335383230303038303030ED
:1045A4003030303030303030303030303041300026
:1045B4003A313038313930303043353832303030B8
:1045C4003830374235303046304233464232373461
:1045D4004232373438383334323930003A313038B3
:1045E400314130303032364433323734423237346A
:1045F4003930303230384234323244443330304649
:1046040030333246454537003A3130383142303064
:10461400303235344532363443303141393638342A
:1046240036303046303941464241343142413431EA
:10463400303841003A313038314330303030303264
:1046440035414334323239444332323445323234E0
:10465400434134314241343130303032353231002B
:104664003A313038314430303041433432323744D7
:1046740043444445393030303130304630323646A8
:104684004531453444314634434644003A313038A8
:1046940031453030303634314230363436413431BD
:1046A40030303032433231444333303436303046A4
:1046B40030374346423041003A31303831463030A9
:1046C4003044334539303031323043333335334677
:1046D4003830343443383931413934343243454441
:1046E400394237003A3130383230303030353535B0
:1046F4003831353630303433324639453735334640
:10470400383038324235334638303434433144005B
:104714003A3130383231303030393434324339443C
:104724003931303630303433324641453735364608
:104734003832353330393834374444003A3130383C
:1047440032323030303031333543454537353646F3
:1047540038323533303938343730313335443045F5
:1047640037303133434237003A3130383233303026
:1047740030353546383234333039383437443645B9
:1047840037433838323030303845303832303030D2
:10479400383435003A3130383234303030453038FE
:1047A40032303030384630383230303038463038B5
:1047B40032303030384630383230303038353600E8
:1047C4003A313038323530303046303832303030AB
:1047D4003846303832303030384630383230303085
:1047E4003846303832303030383336003A313038A9
:1047F4003236303030313434383030343746454551
:1048040037314546303034304630434246454646DB
:1048140033303838303330003A3130383237303092
:104824003045464633303938303731343631303418
:10483400413130343746454537464545373145469D
:10484400303533003A31303832383030303034306B
:10485400463043424645464633303838304546466E
:10486400333039383037313436304234413246000F
:104874003A313038323930303031303437464545CA
:10488400373145463030343046304342464546465B
:104894003330383830454646333641003A313038C3
:1048A40032413030303039383037313436303634C4
:1048B4004131303437464545374645453746454509
:1048C40037464545373533003A3130383242303097
:1048D40030373034373030303039353831303030AB
:1048E400383742383230303038393338323030307B
:1048F400384337003A303638324330303041393873
:104904003230303038464545374130000000000031
:104914000000000000000000000000000000000093
:104924003A31303832433830303638384530303028
:104934003830303030303032303134303030303262
:104944003036383845303030383536003A31303842
:104954003244383030303030303030313030303034
:104964003030303130313430303030323031433027
:1049740030303032303036003A3038383245383022
:104984003030303030303031303030303030303121
:104994003036450000000000000000000000000068
:1049A400000000003A313038324630303031304285
:1049B400353038344230343436313836383446467B
:1049C400343741373342304642463346304445005B
:1049D4003A3130383330303030303046303730468A
:1049E400383030323232313436344646304646334B
:1049F4003030304630333646383030003A31303893
:104A0400333130303030303230313042443038306D
:104A14003030303230303842353042344231413631
:104A240038343246343744003A3130383332303057
:104A34003030303732314136303141363834324615
:104A440034383036323141363031413638343246FA
:104A5400343935003A313038333330303038303748
:104A640032314136303033323030304630304646E1
:104A7400383046323046464637443846464242008D
:104A84003A313038333430303030304630383046D4
:104A940044303032303038424430303343303234B2
:104AA4003030313442313836383931003A313038E7
:104AB40033353030303730343730304246313830A7
:104AC4003030303230303734414433363832334684
:104AD40034453036333839003A31303833363030B3
:104AE400303142303431423043343346304246363A
:104AF4003330303032343346343030333330304670
:104B0400343132003A313038333730303045303692
:104B14003030333433443336303730343730304543
:104B24004430304530313734423730423533390040
:104B34003A313038333830303044433638433446F1
:104B44003330323234433446313037303530343216
:104B54004430344631303430334445003A3130380F
:104B640033393030303238424630343235344646C8
:104B7400304646333630363242303646413035469A
:104B840033384342464535003A31303833413030CA
:104B940030303333433030323432314541303330C6
:104BA4003341333430303646413034463432324582
:104BB400413732003A3130383342303030303430DB
:104BC4003430303238343345413034303341384274
:104BD4004630304631363034303446454132380080
:104BE4003A3130383343303030303331334243425A
:104BF400463030463030463030303534414442421D
:104C04003241414246303046354533003A3130383E
:104C14003344303030363134303133353438304643
:104C24003830303333373042443030424630304508
:104C340044303045303331003A3130383345303048
:104C440030313445443030453030313338423046E9
:104C540031383037463041443230363442303734DC
:104C6400413535003A313038334630303035383616
:104C740030463032313832463832333130303032E7
:104C840030303732323938363031413630344300FF
:104C94003A313038343030303037303437303132E4
:104CA400303730343730304246313045303030459B
:104CB4003030304544303045303831003A313038C6
:104CC400343130303030343442314136383034329B
:104CD4003830434246343246303034303232324651
:104CE40030303430323434003A31303834323030C9
:104CF400303141363037303437313045303030455B
:104D04003030333638463742353034343644383030
:104D1400373042003A31303834333030303338446D
:104D24003432333638393930373644443432333612
:104D3400383145303730304631423938304541001A
:104D44003A31303834343030303233363835443018
:104D540037323844353030323330313933413634F8
:104D64004241363444314136433146003A313038D9
:104D740034353030303432463038303532314136E3
:104D840034314236433033463038303533303139BC
:104D940033303139423144003A31303834363030EE
:104DA4003032423638343346343830373332423690
:104DB4003046464637373046463036343632423649
:104DC400383830003A3130383437303030444130BC
:104DD4003534304631433038303944344232323756
:104DE4004131413730413336383030324236380081
:104DF4003A31303834383030303030463043373858
:104E040030464646373632464639363444303634F0
:104E14003634314632383833373344003A31303857
:104E24003439303030324236463942303734304605
:104E340031423638304132363930303241343046FE
:104E440030433938303842003A3130383441303028
:104E540030303032303135453038463442394136DD
:104E640038303246303043303230343241303744D7
:104E7400304436003A3130383442303030394136FB
:104E840038303246303043303230383241304344A7
:104E940031354236383541303230394435414500B8
:104EA4003A31303834433030303838344231423695
:104EB4003839423033423444353633363830303280
:104EC4004242314431303132303936003A313038AF
:104ED4003444303030303342304630424438363453
:104EE400423232373931413730363336383642423E
:104EF40031464646373639003A3130383445303059
:104F0400303335464638303444303634363242361F
:104F140038394630334132443446464637324546C2
:104F2400463731003A313038344630303038303159
:104F340042363432384637443930333230454145CD
:104F440037464646373237464637393444414600B9
:104F54003A3130383530303030303634363242360B
:104F6400383938303339344435464646373230469A
:104F74004638303142363432383443003A313038EE
:104F8400353130303046374439463045373733349D
:104F94004239413638313246303043304630374476
:104FA40030394136384645003A31303835323030C0
:104FB400303032463030433032303832413136448A
:104FC400313542363835393032313344343644346D
:104FD400423735003A3130383533303030314136AC
:104FE4003839323037303244354532363830313260
:104FF4004143384431313836384638323241310051
:105004003A31303835343030303932464141324625
:1050140032423246413832463132323639384134FE
:105024003032304630463830313845003A31303845
:105034003535303030304134333141363037304516
:1050440037453236383636344244414231303132D3
:1050540032314136304441003A313038353630301F
:105064003046464637463446453546344430363471
:1050740036324236383942303730434435323936A5
:10508400383834003A3130383537303030463832F9
:10509400333933464141334633423346413833464C
:1050A40032323336393933343032314630324200D9
:1050B4003A313038353830303046383032313334A4
:1050C4003332423630353745374646463745304623
:1050D4004538303142303232383339003A313038A1
:1050E4003539303030454144394230453731413625
:1050F40030464646374439464535323444303634F2
:1051040036324236384243003A3130383541303055
:1051140030394630373746463534394146464646B7
:1051240037443146453830314230323238463644DD
:10513400393630003A31303835423030304131453B
:1051440037363236393530344237414231303132F4
:1051540032314136304646463743364645344200BE
:105164003A313038354330303034383444303634E2
:105174003636423646393830373346463533414180
:105184004646464637424546453832003A3130387D
:10519400354430303038303142303232384636449B
:1051A4003938454537314136304646463742374629
:1051B40045343134444446003A3130383545303092
:1051C400303036343636423646393930373746464B
:1051D40035324241464646463741464645383031E7
:1051E400423339003A31303835463030303032329B
:1051F40038463644393746453746464637413946B8
:10520400453830314230323238374646363435004C
:105214003A3130383630303030333641463738451D
:1052240037464646374132464538303142423834B3
:105234003237464636343041463937003A31303811
:1052440036313030303731453746464637394246B5
:1052540045333334443036343634314632383833D7
:1052640037324236463142003A3130383632303005
:105274003039383037374646353339414646464665
:105284003739314645383031424238343246364473
:10529400393636003A3130383633303030363145ED
:1052A4003732433444414236383033463030433069
:1052B400333038324233464634343741463038008E
:1052C4003A3130383634303030324534453030328B
:1052D4003330323241333336303345443146464637
:1052E4003737464645303734364644003A3130384D
:1052F4003635303030324236383939303133324451
:1053040034343746364330373739374641413746E8
:1053140037344646343031003A313038363630305E
:1053240030343033324237464138374637393246E3
:1053340041413246323446463037303631423246C5
:10534400413844003A31303836373030303832461C
:1053540030393146414131463144344539303733AF
:105364003231333433363236413032464135370008
:105374003A313038363830303030374637413236CB
:1053840041353230383031334138323430334234BD
:105394003331333433453236413639003A313038DB
:1053A4003639303030313434434231464138314675
:1053B4003130324641303146313042343336423670
:1053C40030303132333332003A31303836413030D4
:1053D4003033333630464646373533464530353438
:1053E4003632333638394130313346463546384122
:1053F400454135003A313038364230303046464641
:1054040037344346453430314230323238463644FC
:1054140039314345374646463734364645453900E3
:105424003A31303836433030304330314230323222
:1054340038433444393136453746464637343046A6
:105444004530343436324236384641003A31303809
:1054540036443030303942303137464635453541AF
:10546400454646463733394645303031423032328C
:1054740038463644394236003A31303836453030D1
:1054840030303945373030424630303338303234BA
:1054940030303037303030343037303338303234E5
:1054A400304337003A3130383646303030303233DA
:1054B40038303234303030303034373432383030C1
:1054C40045343734323630303034373432373500BF
:1054D4003A3130383730303030313934413933367D
:1054E4003830334630304330333034324231304256
:1054F4003530334430303832423046003A31303877
:105504003731303030303344303136343830304550
:10551400303136343831304244353136383533362B
:1055240038303146304238003A3130383732303052
:1055340030334630313133463438303046343746F0
:1055440036433037343533363839344641413446BE
:10555400303235003A31303837333030304230462B
:1055640041383046303033454130343033323346BD
:1055740041303046333134424630433438463400C7
:105584003A313038373430303030413438423046B4
:105594004246314630353834333037344234464667
:1055A4003434303332354236384536003A313038C7
:1055B4003735303030393246414132463242324654
:1055C4004138324632303346343430333344333462
:1055D40030303133333238003A31303837363030C6
:1055E4003035423030423046424633463044374507
:1055F400373030333830323430303032344634306F
:10560400304430003A313038373730303038304178
:105614003831323031353534423141363830324622
:105624003030463032384134323244453942370022
:105634003A31303837383030304630343130353420
:1056440036304534363246443332413638393430D4
:105654003733364434443030373039003A31303817
:1056640037393030303343443434453442314136B1
:1056740038303246303046303242323432303046BE
:1056840032383638304246003A31303837413030DB
:1056940030324136383531303730304631384138A0
:1056A4003031333037303744353438344132393699
:1056B400394341003A3130383742303030393336AB
:1056C4003832334634363034333433454143313061
:1056D4003339333630464646374130464638420041
:1056E4003A31303837433030303433344246303254
:1056F40032394236383932464141324632423246F4
:105704004138324632303346304433003A3130384F
:105714003744303030463030334433343033463419
:1057240041443335434438343033463442313836D7
:1057340030304632303932003A3130383745303043
:1057440030464646373836464430303230303745B6
:1057540030434142323141373031423638303346BA
:10576400303844003A313038374630303030463003
:105774003338423432433844303031323042444595
:1057840038463038313334343941383638334500CB
:105794003A313038383030303038423638323346A7
:1057A400304630303330333433384236304330458A
:1057B4003736413638333034423441003A313038A8
:1057C4003831303030303132413144443131423675
:1057D4003831334634303033464543443032433431
:1057E40043413336383337003A3130383832303089
:1057F400303233463030333033313334334133365F
:1058040030464646373930464436423638303132EF
:10581400423534003A313038383330303030373470
:105824003634314632383833383135443141333601
:10583400383033463030433033303432424436002B
:105844003A313038383430303041374430464646C7
:1058540037383346444330314234303435463544A6
:105864003930333230443345373330003A3130380D
:1058740038353030303931314530313239314236D2
:10588400383032443831334630303037464444457A
:1058940037313346303939003A31303838363030E0
:1058A4003030323046444145373032324230414460
:1058B4003141333638303346303043303330383288
:1058C400424545003A313038383730303038464474
:1058D400304646463736424644433031423430340B
:1058E4003546354439453645373033324231320056
:1058F4003A3130383838303030304644314133363C
:105904003830334630304330333043324238324417
:105914003046464637354546443231003A31303810
:105924003839303030433031423430343546354400
:10593400394439453746464637353846444330318D
:1059440042343034353346003A313038384130301F
:1059540030443444384133363831334630304330C0
:105964004646364431373245374632423231413782
:10597400304135003A3130383842303030314236F7
:10598400383033463030463033423334323944448D
:1059940031373145373034343945383638443800B6
:1059A4003A31303838433030303842363832334682
:1059B4003445303533303334333842363036444569
:1059C4003730303343303234303638003A313038BF
:1059D4003844303030303033383032343034363884
:1059E4004530303038303830303030323030313487
:1059F40042313836383445003A3130383845303061
:105A0400303730343730304246303830303030324E
:105A14003030384235303046303135463830303029
:105A2400303330003A31303838463030303031326B
:105A3400333033363030313442304236303730341C
:105A4400373030424630303030303032304134003C
:105A54003A313038393030303030384235303046F1
:105A640030314246383032344230323441394136B2
:105A74003030384244303042463930003A313038E0
:105A840039313030303030454430304530303038C2
:105A94003030303038424646333446384630353478
:105AA40039303634424433003A31303839323030C8
:105AB400304341363830324634453036323133346F
:105AC4003343423630424646333446384630304219
